:1000000007C1000035C1000033C1000031C100004C
:100010002FC100002DC100002BC1000029C100002C
:1000200027C1000025C1000023C1000021C100003C
:100030001FC100001DC100001BC1000019C100004C
:1000400017C1000015C1000013C1000011C100005C
:100050000FC100000DC100000BC1000016C500005B
:1000600007C10000E9C40000BEC4000001C10000D7
:10007000FFC00000FDC00000FBC00000F9C0000090
:10008000F7C00000F5C00000F3C00000F1C00000A0
:10009000EFC00000EDC00000EBC00000E9C00000B0
:1000A000E7C00000E5C00000E3C00000E1C00000C0
:1000B000DFC00000DDC00000DBC00000D9C00000D0
:1000C000D7C00000D5C00000D3C00000D1C00000E0
:1000D000CFC00000CDC000005DC4000032C40000ED
:1000E000C7C00000B202B502A402A802AC02EC0232
:1000F000B902BD02C302C702CB02D102D502D902A6
:10010000EC02DF02E302E70200000A0B02090C0D19
:100110000E080703040100000000000000000000BA
:1001200000000000000000000000000000000000CF
:10013000000000001211100000000000000000008C
:1001400000000000000000000000000000000000AF
:100150002200250028002B002E003100340002016F
:100160000000050108010B01000021002400270008
:100170002A002D00300033000101000004010701B6
:100180000A0105050505070508080808020202021C
:100190000A0A080804040404010101010101010123
:1001A0000303030303030303040707070C0C0C0CEE
:1001B0000C0C0C0C020202020606060606060606D7
:1001C0000B0B0B0B0B0B0B0B010210202008081064
:1001D00020401020408002010201080402010102B7
:1001E0000408102040808040201008040201800490
:1001F00002018040201008040201080402010102EB
:1002000004081020408001020408102040808F055F
:1002100011241FBECFEFD1E2DEBFCDBF00E00CBF87
:1002200015E0A0E0B2E0EAEDFCE100E00BBF02C0A7
:1002300007900D92A03CB107D9F72FE0A0ECB5E0F4
:1002400001C01D92AA34B207E1F711E0C8E0D1E085
:1002500000E006C021970109802FFE010E94570B84
:10026000C730D10780E00807A9F7ACD40C946B0E17
:10027000C7CEE091AD0EF091AE0E0190F081E02D71
:10028000682F8DEA9EE01994CF92DF92EF92FF9251
:100290000F931F93CF93DF936C017A018B01C0E022
:1002A000D0E0CE15DF0589F0D8016D918D01D60122
:1002B000ED91FC910190F081E02DC6011995892BFB
:1002C00011F47E0102C02196ECCFC701DF91CF91DE
:1002D0001F910F91FF90EF90DF90CF900895FC0158
:1002E000A089B1898C91A689B78982FD0FC09C91A4
:1002F000818D8F5F8F73228D821749F0218DDF01F1
:10030000A20FB11D5D969C93818F08958C910895E5
:10031000FC01918D828D981761F0828DDF01A80F0D
:10032000B11D5D968C91928D9F5F9F73928F90E02F
:1003300008958FEF9FEF0895FC01918D828D98179E
:1003400031F0828DE80FF11D858D90E008958FEFDB
:100350009FEF0895FC01918D228D892F90E0805CA4
:100360009F4F821B91098F739927089580E19EE02A
:10037000F1DF21E0892B09F420E0822F08958DEA36
:100380009EE0E8DF21E0892B09F420E0822F089528
:10039000FC01848DDF01A80FB11DA35ABF4F2C9122
:1003A000848D90E001968F739927848FA689B789F1
:1003B0002C93A089B1898C9180648C93938D848DCA
:1003C000981306C00288F389E02D80818F7D808399
:1003D0000895EF92FF920F931F93CF93DF93EC0159
:1003E00081E0888F9B8D8C8D981305C0E889F989F1
:1003F000808185FD23C0F62E0B8D10E00F5F1F4F0F
:100400000F731127E02E8C8DE8120BC00FB607FC7E
:10041000FACFE889F989808185FFF5CFCE01B8DF71
:10042000F2CF8B8DFE01E80FF11DE35AFF4FF082F2
:100430000B8FEA89FB898081806207C0EE89FF8982
:100440006083E889F98980818064808381E090E01D
:10045000DF91CF911F910F91FF90EF900895CF936F
:10046000DF93EC01888D8823C1F0EA89FB898081C4
:1004700085FD05C0A889B9898C9186FD0EC00FB68F
:1004800007FCF5CF808185FFF2CFA889B9898C91CF
:1004900085FFEDCFCE017CDFE8CFDF91CF910895CE
:1004A00080E090E0892B19F06ADF811120C080E0A4
:1004B00090E0892B41F080E090E0892B21F00E94B0
:1004C0000000811117C080E090E0892B41F080E0AE
:1004D00090E0892B21F00E94000081110EC080E085
:1004E00090E0892B79F042DF81110AC008950E94C3
:1004F0000000DDCF0E940000E6CF0E940000EFCF99
:100500000C9400000895362F90E0FC01E85FFE4F48
:100510004491FC01E853FE4F2491FC01EE57FE4F3D
:100520009491992309F46BC0442309F455C050E019
:10053000FA013197E231F10508F04EC08827EE58F4
:10054000FF4F8F4F0C94570B809180008F7707C01F
:10055000809180008F7D03C080918000877F809391
:1005600080003AC084B58F7702C084B58F7D84BD8A
:1005700033C08091B0008F7703C08091B0008F7D31
:100580008093B00029C0809190008F7707C0809140
:1005900090008F7D03C080919000877F80939000B2
:1005A0001BC08091A0008F7707C08091A0008F7D35
:1005B00003C08091A000877F8093A0000DC0809130
:1005C00020018F7707C0809120018F7D03C080912B
:1005D0002001877F80932001E92FF0E0EE0FFF1FBD
:1005E000E25BFE4FA591B4918FB7F894EC91311175
:1005F00003C020952E2301C02E2B2C938FBF08956E
:100600003FB7F8948091C5059091C605A091C705A4
:10061000B091C80526B5A89B05C02F3F19F00196DB
:10062000A11DB11D3FBFBA2FA92F982F8827820F78
:10063000911DA11DB11DBC01CD0142E0660F771FC8
:10064000881F991F4A95D1F708958F929F92AF9274
:10065000BF92CF92DF92EF92FF926B017C01D0DFCD
:100660004B015C01C114D104E104F104E9F0C8DFDD
:10067000DC01CB0188199909AA09BB09883E93407E
:10068000A105B10578F321E0C21AD108E108F1080B
:1006900088EE880E83E0981EA11CB11CC114D10401
:1006A000E104F10421F7DECFFF90EF90DF90CF90CF
:1006B000BF90AF909F908F9008952FB7F89460915E
:1006C000C1057091C2058091C3059091C4052FBFEB
:1006D0000895F5D76115710579F0FB0101900020AF
:1006E000E9F73197AF01461B570BDC01ED91FC9107
:1006F0000280F381E02D199480E090E008958F92BC
:100700009F92AF92BF920F931F93CF93DF93CDB77A
:10071000DEB7A1970FB6F894DEBF0FBECDBF19A20A
:10072000423008F44AE08E010F5D1F4F842E912C59
:10073000A12CB12CA501940198D7E62FB901CA01CB
:1007400001501109EA3014F4E05D01C0E95CD80100
:10075000EC93232B242B252B69F7B8018DEA9EE01F
:10076000B9DFA1960FB6F894DEBF0FBECDBFDF9103
:10077000CF911F910F91BF90AF909F908F90089550
:10078000CF92DF92EF92FF92CF93DF936B017C01C8
:100790004115510581F4E091AD0EF091AE0E01903E
:1007A000F081E02D8DEA9EE0DF91CF91FF90EF90F8
:1007B000DF90CF9019944A305105C1F497FF15C0CE
:1007C0008DE257DDEC0166277727CB016C197D0997
:1007D0008E099F094AE093DF8C0F9D1FDF91CF9117
:1007E000FF90EF90DF90CF9008954AE0C701B601E7
:1007F000DF91CF91FF90EF90DF90CF9080CFBC0141
:100800008DEA9EE067CF6CEB72E064CFCF93DF930D
:10081000BC01990F880B990B4AE050E0B1DFEC0165
:100820008DEA9EE0F0DF8C0F9D1FDF91CF91089540
:100830000F931F93CF93DF93EC014CDF8C01CE011C
:10084000E2DF800F911FDF91CF911F910F910895EB
:100850004F925F926F927F928F929F92AF92BF92D0
:10086000CF92DF92EF92FF921F93CF93DF93CDB79A
:10087000DEB7C85ED3400FB6F894DEBF0FBECDBF63
:100880004B016A019E012F5F3F4F590128EE33E073
:10089000F501A901119241505040E1F7BC0180E1FE
:1008A0009EE0C6DF0ADF2B013C0110E0E12CF12CB9
:1008B00080E19EE04FDD892B01F180E19EE028DDA3
:1008C000F501E10FF11D8083D4DC80E19EE042DD83
:1008D000CD973CF08FEB92E092DF80E19EE03ADD35
:1008E00095DFB401C501EFD6892B11F41F5F05C058
:1008F0008DEA9EE088DF81E00DC0DFDEDC01CB0108
:1009000084199509A609B7098C159D05AE05BF0583
:1009100078F280E0C851DC4F0FB6F894DEBF0FBE0E
:10092000CDBFDF91CF911F91FF90EF90DF90CF90DF
:10093000BF90AF909F908F907F906F905F904F90FF
:1009400008951F920F920FB60F9211240BB60F92BB
:100950002F933F934F935F936F937F938F939F93C7
:10096000AF93BF93EF93FF9380E19EE011DDFF9182
:10097000EF91BF91AF919F918F917F916F915F9117
:100980004F913F912F910F900BBE0F900FBE0F9084
:100990001F9018951F920F920FB60F9211240BB64D
:1009A0000F922F933F934F935F936F937F938F9308
:1009B0009F93AF93BF93EF93FF9380E19EE08FDC13
:1009C000FF91EF91BF91AF919F918F917F916F9127
:1009D0005F914F913F912F910F900BBE0F900FBEE3
:1009E0000F901F9018951F920F920FB60F9211241F
:1009F0000BB60F922F933F934F935F936F937F9319
:100A00008F939F93AF93BF93EF93FF938DEA9EE0F5
:100A1000BFDCFF91EF91BF91AF919F918F917F913B
:100A20006F915F914F913F912F910F900BBE0F905F
:100A30000FBE0F901F9018951F920F920FB60F9236
:100A400011240BB60F922F933F934F935F936F93A5
:100A50007F938F939F93AF93BF93EF93FF938DEA11
:100A60009EE03DDCFF91EF91BF91AF919F918F91FF
:100A70007F916F915F914F913F912F910F900BBE9E
:100A80000F900FBE0F901F9018951F920F920FB6E8
:100A90000F9211242F933F938F939F93AF93BF9304
:100AA0008091C1059091C205A091C305B091C40584
:100AB0003091C00523E0230F2D3720F40196A11DAE
:100AC000B11D05C026E8230F0296A11DB11D20937C
:100AD000C0058093C1059093C205A093C305B09350
:100AE000C4058091C5059091C605A091C705B09138
:100AF000C8050196A11DB11D8093C5059093C6053B
:100B0000A093C705B093C805BF91AF919F918F91F6
:100B10003F912F910F900FBE0F901F901895E0E11D
:100B2000FEE01382128248EE53E060E070E04483FE
:100B300055836683778380EB92E09183808325E3FE
:100B400031E03587248724E331E03787268720E3A7
:100B500031E0318B208B21E331E0338B228B22E398
:100B600031E0358B248B26E331E0378B268B118ED9
:100B7000128E138E148EEDEAFEE0138212824483ED
:100B80005583668377839183808385EC90E0958796
:100B9000848784EC90E09787868780EC90E0918B47
:100BA000808B81EC90E0938B828B82EC90E0958B34
:100BB000848B86EC90E0978B868B118E128E138E31
:100BC000148E0895CF93DF93CDB7DEB7CE56D109FB
:100BD0000FB6F894DEBF0FBECDBF789484B58260A7
:100BE00084BD84B5816084BD85B5826085BD85B5D1
:100BF000816085BD80916E00816080936E0010924F
:100C000081008091810082608093810080918100C9
:100C1000816080938100809180008160809380005A
:100C20008091B10084608093B1008091B0008160B8
:100C30008093B000809191008260809391008091B8
:100C400091008160809391008091900081608093F9
:100C500090008091A10082608093A1008091A1000A
:100C600081608093A1008091A00081608093A000AA
:100C70008091210182608093210180912101816016
:100C800080932101809120018160809320018091D7
:100C90007A00846080937A0080917A0082608093E9
:100CA0007A0080917A00816080937A0080917A0046
:100CB000806880937A001092C10080ED97E0ECE3A9
:100CC000F6E0DF019C011D9221503040E1F7E0ED9C
:100CD000F1E02491EAE8F1E08491882399F090E032
:100CE000880F991FFC01E859FE4FA591B491FC01B2
:100CF000E25BFE4F859194918FB7F894EC91E22BD3
:100D0000EC938FBFE091BD0EF091BE0E22E02083E8
:100D1000E091B90EF091BA0E1082E091BB0EF09105
:100D2000BC0E88E080831092C50EE091C10EF09158
:100D3000C20E96E09083E091BF0EF091C00E8081CC
:100D400080618083E091BF0EF091C00E8081886049
:100D50008083E091BF0EF091C00E80818068808317
:100D6000E091BF0EF091C00E80818F7D8083E09175
:100D7000200EF091210E2083E0911C0EF0911D0EAB
:100D80001082E0911E0EF0911F0E87E68083109274
:100D9000280EE091240EF091250E9083E091220E12
:100DA000F091230E808180618083E091220EF0918A
:100DB000230E808188608083E091220EF091230EC3
:100DC000808180688083E091220EF091230E8081E3
:100DD0008F7D808386EE92E012DD80E19EE0BADABC
:100DE00015DD6AEF72E08DEA9EE022DD40ED57E00E
:100DF00066E073E089E093E02BDD8823D9F087EA91
:100E000092E09F938F938CE093E09F938F9388ED74
:100E100095E09F938F9371D440ED57E066E073E0C7
:100E200088ED95E015DD0F900F900F900F900F90CB
:100E30000F901EC061E088E066DB68EB7BE080E03D
:100E400090E003DC60E088E05EDB40ED57E066E0C8
:100E500073E089E093E0FCDC8823B9F3D0CF44EF62
:100E600051E06BE273E082E293E0F2DC811109C0B1
:100E700044EF51E067E173E082E293E0E9DC88232C
:100E800071F389E992E09F938F9384ED94E09F93AF
:100E90008F9308ED15E01F930F932FD440ED57E08B
:100EA00066E073E0C801D4DC81E992E09F938F9300
:100EB00085E992E09F938F938EEE94E09F938F93BA
:100EC0001F930F931AD440ED57E066E073E0C8011A
:100ED000BFDC40ED57E069E075E088E195E0B8DC03
:100EE00040E25EE464E275E083E395E0B1DC88E033
:100EF0008F9385E38F9381E892E09F938F9389E4AA
:100F000095E09F938F931F930F93F7D348EA51E691
:100F10006DE575E0C8019CDC60E072E080E19EE078
:100F2000D9DB60E072E08DEA9EE082DC6AE180E17C
:100F30009EE04FDA0FB6F894DEBF0FBECDBF40ED96
:100F4000242E47E0342ECE0101965C01B6DB60937F
:100F50000C0E70930D0E80930E0E90930F0EACE35B
:100F6000B6E0F1011D923197E9F7A8EDB5E0E4E6AE
:100F70001D92EA95E9F71092D70586E393E03FDCEE
:100F800080E19EE0E7D9892B51F080E19EE0C0D955
:100F9000BC01990F880B990B40E1B1DBF1CF8DEAD1
:100FA0009EE031DC8ADB6B017C016093D30570939A
:100FB000D4058093D5059093D6057FDB6093CF054C
:100FC0007093D0058093D1059093D20580E19EE087
:100FD000C1D9892B61F471DBDC01CB018C199D092E
:100FE000AE09BF0980329E44A105B10578F365DBE7
:100FF000DC01CB018C199D09AE09BF0981329E44E9
:10100000A105B10528F06BE473E08DEA9EE010DCE9
:1010100054DB0091CF051091D0052091D10530917E
:10102000D205DC01CB01801B910BA20BB30B80938B
:10103000CF059093D005A093D105B093D20580E160
:101040009EE066D98093D805843419F08FE593E04B
:10105000D6DB33DB6093D3057093D4058093D5053D
:101060009093D6058091D805843409F126DB009150
:10107000D3051091D4052091D5053091D605DC011A
:10108000CB01801B910BA20BB30B80329E44A105B8
:10109000B10568F480E19EE05DD91816190614F7D1
:1010A00080E19EE035D98093D805E3D8DBCF05DB1E
:1010B0000091D3051091D4052091D5053091D60526
:1010C000DC01CB01801B910BA20BB30B81329E4440
:1010D000A105B10528F068E773E08DEA9EE0A8DB82
:1010E000ECDA6B017C016093D3057093D405809397
:1010F000D5059093D60580E19EE02CD9892B61F42B
:10110000DCDADC01CB018C199D09AE09BF09803204
:101110009E44A105B10578F380E19EE01BD9181625
:10112000190634F480E19EE0F3D88093D705A1D866
:10113000C4DA6B017C016093D3057093D40580936E
:10114000D5059093D60580E19EE004D9892B61F402
:10115000B4DADC01CB018C199D09AE09BF098032DC
:101160009E44A105B10578F380E19EE0F3D81816FE
:10117000190634F480E19EE0CBD88093D70579D866
:101180009CDA6B017C016093D3057093D405809346
:10119000D5059093D60580E19EE0DCD8892B61F4DB
:1011A0008CDADC01CB018C199D09AE09BF098032B4
:1011B0009E44A105B10578F380E19EE0CBD81816D6
:1011C000190634F480E19EE0A3D88093D70551D866
:1011D00074DA6B017C016093D3057093D40580931E
:1011E000D5059093D60580E19EE0B4D8892B61F4B3
:1011F00064DADC01CB018C199D09AE09BF0980328C
:101200009E44A105B10578F380E19EE0A3D81816AD
:10121000190634F480E19EE07BD88093D70529D865
:101220008DEA9EE0F0DA1092CE051092CD0545DAF7
:101230006B017C016093D3057093D4058093D50531
:101240009093D60580E19EE085D8892B61F435DA4C
:10125000DC01CB018C199D09AE09BF0980329E4487
:10126000A105B10578F329DADC01CB018C199D09C0
:10127000AE09BF0981329E44A105B10528F060E99D
:1012800073E08DEA9EE0D4DAE090CD05F090CE05D3
:1012900080E19EE03DD8870108521A4FD8018C9317
:1012A000BFEFEB1AFB0AF092CE05E092CD058D3030
:1012B00061F403DA6B017C016093D3057093D4056C
:1012C0008093D5059093D60510C08A3009F0AFCF32
:1012D000F0CFF3D9DC01CB018C199D09AE09BF0910
:1012E00080329E44A105B10528F480E19EE032D809
:1012F000892B79F380E19EE02DD8181619061CF48D
:1013000080E19EE005D8D8011C9288ED95E0BED41E
:101310009093CC058093CB058FEA93E070DA8091AF
:10132000CB059091CC0572DA1092CA051092C905CE
:101330008BEB93E064DA80E19EE00CD867DA8DEA0B
:101340009EE061DABAD96093D3057093D405809397
:10135000D5059093D6050091CB051091CC051016BC
:101360001106ACF4AAD9C090D305D090D405E09072
:10137000D505F090D605DC01CB018C199D09AE098D
:10138000BF0980329E44A105B10508F4D1C03CE3F9
:10139000E32E36E0F32E2091C9053091CA05C7012E
:1013A0008C539640281739079CF08701D7018C9100
:1013B000803118F480EE93E022DABFEFEB1AFB0ADB
:1013C000F801608170E080E090E040E198D9E3CFDF
:1013D0008DEA9EE018DA82EE93E011DA8091CB0577
:1013E0009091CC0513DA87EF93E009DA80E19EE073
:1013F0000E94AA010BDA8DEA9EE005DA83E194E00F
:10140000FED960910C0E70910D0E80910E0E909190
:101410000F0E4AE050E0B4D982E294E0F0D9609136
:10142000CF057091D0058091D1059091D2054AE009
:1014300050E0A6D960E474E08DEA9EE0F9D93DD988
:101440006093D3057093D4058093D5059093D6050A
:1014500052E0452E512C612C712CE12CF12C2DD910
:101460000091D3051091D4052091D5053091D60572
:10147000DC01CB01801B910BA20BB30B80329E448D
:10148000A105B105F8F4C701845C994F6C01F7011F
:10149000E35CF94F0081470192E0890E911CF40151
:1014A000E45CF94F1081D6018C91833D19F404302E
:1014B00008F465C08DEA9EE0A6D960E775E08DEA84
:1014C0009EE0B6D9FAD80091D3051091D4052091A9
:1014D000D5053091D605DC01CB01801B910BA20B09
:1014E000B30B80329E44A105B10518F46AE974E09B
:1014F00002C06FEB74E08DEA9EE09AD9DED80091CD
:101500000C0E10910D0E20910E0E30910F0EDC017D
:10151000CB01801B910BA20BB30B80930C0E90930D
:101520000D0EA0930E0EB0930F0E0E9450020ECD22
:1015300080E19EE00E94AA0118161906D4F4E090FA
:10154000C905F090CA0580E19EE00E948801F7017C
:10155000E45CF94F8083BFEFEB1AFB0AF092CA05F7
:10156000E092C905015011091093CC050093CB05F9
:10157000F2CE61E070E080E090E067D8ECCE8DEADA
:101580009EE041D960E875E08DEA9EE051D9802F58
:1015900090E0982F8827DC01A10FB11D8D0164EA2E
:1015A00075E08DEA9EE044D9C80130D968EB75E05A
:1015B0008DEA9EE03DD9080D191D4801B3E08B0E60
:1015C000911C8E189F08F601D501CD018A199B093F
:1015D000881599051CF481918D93F7CF7801F4E07B
:1015E000EF0EF11C80E694E00AD94AE050E0C30116
:1015F000B201C6D885EB95E002D98501C8018A19E8
:101600009B098816990694F06801D8018C91803165
:1016100018F480EE93E0F3D80F5F1F4FF60160815E
:1016200070E080E090E040E16AD8E8CF8DEA9EE08B
:10163000EAD88DEA9EE0E7D881E894E0E0D86091AE
:10164000CB057091CC05072E000C880B990B4AE056
:1016500050E096D880E994E0D2D8C701D7D8FFEF00
:101660004F1A5F0A6F0A7F0AFACEA1E21A2EAA1B4E
:10167000BB1BFD010DC0AA1FBB1FEE1FFF1FA21742
:10168000B307E407F50720F0A21BB30BE40BF50B3F
:10169000661F771F881F991F1A9469F760957095C8
:1016A000809590959B01AC01BD01CF010895EE0F8F
:1016B000FF1F881F8BBF0790F691E02D199481E0E2
:1016C00090E0F89408C3FB0151915523A9F0BF01A4
:1016D000DC014D9145174111E1F759F4CD0101901D
:1016E000002049F04D9140154111C9F3FB01411112
:1016F000EFCF81E090E0019708950F931F93CF9370
:10170000DF93CDB7DEB72E970FB6F894DEBF0FBECE
:10171000CDBF0E891F8986E08C831A8309838FEFE2
:101720009FE79E838D83AE01465E5F4F688D798D06
:10173000CE01019611D02F813885F801E20FF31FF9
:1017400010822E960FB6F894DEBF0FBECDBFDF918C
:10175000CF911F910F9108952F923F924F925F92D8
:101760006F927F928F929F92AF92BF92CF92DF92B1
:10177000EF92FF920F931F93CF93DF93CDB7DEB716
:101780002C970FB6F894DEBF0FBECDBF7C016B0166
:101790008A01FC0117821682838181FFB0C1CE01CC
:1017A00001964C01F7019381F60193FD859193FF1A
:1017B00081916F01882309F49EC1853239F493FD2C
:1017C000859193FF81916F01853221F4B70190E0FB
:1017D000C7D1E8CF512C312C20E02032A0F48B323D
:1017E00069F030F4803259F0833269F420612CC002
:1017F0008D3239F0803339F4216026C022602460B4
:1018000023C0286021C027FD27C030ED380F3A30B3
:1018100078F426FF06C0FAE05F9E300D1124532EA7
:1018200013C08AE0389E300D1124332E20620CC084
:101830008E3221F426FD5FC1206406C08C3611F47F
:10184000206802C0883641F4F60193FD859193FF2C
:1018500081916F018111C1CF982F9F7D9554933055
:1018600028F40C5F1F4FFFE3F9830DC0833631F07E
:10187000833771F0833509F057C021C0F8018081AA
:1018800089830E5F1F4F44244394512C540114C08C
:101890003801F2E06F0E711CF801A080B18026FFC4
:1018A00003C0652D70E002C06FEF7FEFC5012C878C
:1018B0004CD12C0183012C852F77222E16C03801A4
:1018C000F2E06F0E711CF801A080B18026FF03C00A
:1018D000652D70E002C06FEF7FEFC5012C872AD124
:1018E0002C012C852068222E830123FC19C0832D16
:1018F00090E048165906A0F4B70180E290E030D19C
:101900003A94F5CFF50127FC859127FE81915F017F
:10191000B70190E025D131103A94F1E04F1A510807
:101920004114510479F7DEC0843611F0893631F55F
:10193000F80127FF07C060817181828193810C5F6C
:101940001F4F08C060817181072E000C880B990B16
:101950000E5F1F4F2F76722E97FF09C090958095CE
:10196000709561957F4F8F4F9F4F2068722E2AE0B0
:1019700030E0A4012DD1A82EA81843C0853729F442
:101980002F7EB22E2AE030E025C0F22FF97FBF2E45
:101990008F36C1F018F4883579F0ADC0803719F072
:1019A000883721F0A8C02F2F2061B22EB4FE0DC0C1
:1019B0008B2D8460B82E09C024FF0AC09F2F96602B
:1019C000B92E06C028E030E005C020E130E002C0BA
:1019D00020E132E0F801B7FE07C0608171818281A9
:1019E00093810C5F1F4F06C06081718180E090E0A1
:1019F0000E5F1F4FA401ECD0A82EA818FB2DFF7777
:101A00007F2E76FE0BC0372D3E7FA51450F474FE5A
:101A10000AC072FC08C0372D3E7E05C0BA2C372D97
:101A200003C0BA2C01C0B52C34FF0DC0FE01EA0D75
:101A3000F11D8081803311F4397E09C032FF06C068
:101A4000B394B39404C0832F867809F0B39433FD24
:101A500012C030FF06C05A2CB31418F4530C5B1894
:101A6000B32CB31460F4B70180E290E03C8778D0E7
:101A7000B3943C85F6CFB31410F43B1801C0312C5D
:101A800034FF11C0B70180E390E03C8769D03C850A
:101A900032FF16C031FD03C088E790E002C088E540
:101AA00090E0B7010CC0832F867851F031FF02C05F
:101AB0008BE201C080E237FD8DE2B70190E050D0AB
:101AC000A51430F4B70180E390E04AD05A94F8CFDF
:101AD000AA94F401EA0DF11D8081B70190E040D095
:101AE000A110F6CF332009F45DCEB70180E290E07B
:101AF00037D03A94F7CFF7018681978102C08FEFF4
:101B00009FEF2C960FB6F894DEBF0FBECDBFDF91CE
:101B1000CF911F910F91FF90EF90DF90CF90BF90EA
:101B2000AF909F908F907F906F905F904F903F907D
:101B30002F900895FC010590615070400110D8F776
:101B4000809590958E0F9F1F0895FC016150704005
:101B500001900110D8F7809590958E0F9F1F0895E2
:101B60000F931F93CF93DF93FB01238121FD03C0CC
:101B70008FEF9FEF28C022FF16C046815781248136
:101B800035814217530744F4A081B1819D012F5F35
:101B90003F4F318320838C93268137812F5F3F4FC6
:101BA0003783268310C0EB01092F182F0084F1859D
:101BB000E02D1995892BE1F68E819F8101969F83F7
:101BC0008E83812F902FDF91CF911F910F910895D8
:101BD000FA01AA27283051F1203181F1E8946F935E
:101BE0006E7F6E5F7F4F8F4F9F4FAF4FB1E03ED004
:101BF000B4E03CD0670F781F891F9A1FA11D680FA2
:101C0000791F8A1F911DA11D6A0F711D811D911DD4
:101C1000A11D20D009F468943F912AE0269F112449
:101C20003019305D3193DEF6CF010895462F4770AD
:101C3000405D4193B3E00FD0C9F7F6CF462F4F7008
:101C4000405D4A3318F0495D31FD4052419302D066
:101C5000A9F7EACFB4E0A69597958795779567950C
:101C6000BA95C9F700976105710508959B01AC010C
:101C70000A2E06945795479537952795BA95C9F733
:101C8000620F731F841F951FA01D0895FC018827F4
:101C90009927E89421912032E9F3293010F02E3071
:101CA000C8F32B3239F02D3231F4689403C00BD0D5
:101CB000820F911D219120532A30C8F31EF4909574
:101CC00081959F4F08957AE0979F902D879F802D53
:0A1CD000910D11240895F894FFCF40
:101CDA00474554202F55594D4F20485454502F31C1
:101CEA002E310D0A557365722D4167656E743A205F
:101CFA005465726D6F64726F6E0D0A41636365702D
:101D0A00743A202A2F2A0D0A436F6E6E656374692E
:101D1A006F6E3A20636C6F73650D0A417574686F54
:101D2A0072697A6174696F6E3A20426173696320DD
:101D3A00644756796257396B636D39754F6E526CC9
:101D4A00636D31765A484A76626A453D0D0A0D0A34
:101D5A00003230312E3231372E3133322E3137388C
:101D6A000062616D0062616D007072657061676F1B
:101D7A002E616E63656C0034373235000000000056
:101D8A00E9014401AA0188019C012F020D0A0053AE
:101D9A00657269616C3320617661696C61626C6538
:101DAA00206D61796F722061203630206C6579650B
:101DBA006E646F3A200053657269616C33206176F4
:101DCA0061696C61626C653A20005374617274696E
:101DDA006E672E2E2E004F4B0041540041542B4368
:101DEA0050494E3D2573002B435245473A20302C2B
:101DFA00310041542B435245473F002B435245473C
:101E0A003A20302C35006573746F206C6C65676FEF
:101E1A0020646573707565733A20004E6F2068619F
:101E2A0079206D6173206D656E73616A6573005701
:101E3A00616974696E6720666F72207468652044F0
:101E4A002C20676F743A200041696E7420676F74A2
:101E5A00206E6F2044202A736164666163652A00DC
:101E6A0054696D656F7574206C6579656E646F2051
:101E7A00656C207061636B65742073697A650064B0
:101E8A006174615F73697A653A20005365726961AA
:101E9A006C20617661696C61626C65207072696E32
:101EAA00636970696F206D656E73616A653A2000B7
:101EBA003000646174615F73697A652066696E20B7
:101ECA006C6F6F703A200053657269616C2061769D
:101EDA0061696C61626C652066696E206C6F6F70F7
:101EEA003A2000456C206C6F6F70206475726F3AEF
:101EFA002000206D696C69736567756E646F732C59
:101F0A00206465206C6F73206375616C65732000B3
:101F1A00206573747576696D6F7320657370657269
:101F2A00616E646F20756E206D656E73616A6500FF
:101F3A00536520686120656E766961646F20656CFF
:101F4A00206D656E73616A65206E756D65726F20AE
:101F5A0000446174612073697A652065733A2000D0
:101F6A00206520692065733A2000546F646F7320DE
:101F7A006C6F73206D656E73616A65732068616E3C
:101F8A00207369646F20656E766961646F730053AC
:101F9A00652073616C696F20706F722074696D655A
:101FAA006F75740041542B4347534F434B434F4E75
:101FBA00543D312C224950222C22257322004154AF
:101FCA002B43534F434B415554483D312C312C221E
:101FDA002573222C22257322004E6574776F726B4B
:101FEA0020636C6F7365640041542B4E4554434C17
:101FFA004F5345004E6574776F726B206F70656E34
:10200A0065640041542B4E45544F50454E3D225471
:10201A004350222C323130310041542B434854541E
:10202A00504143543D222573222C2564002B4348FA
:10203A005454504143543A20524551554553540043
:10204A0046696E2064656C206D656E73616A650011
:10205A0048656164657220636F72726563746F2C80
:10206A002070726F636573616E646F206D656E7345
:10207A00616A65004C6172676F2064656C206D65EA
:10208A006E73616A653A2000206279746573000094
:00000001FF
